:100000000C9443000C9460000C9460000C9460000D
:100010000C9460000C9460000C9460000C946000E0
:100020000C9460000C9460000C9460000C946000D0
:100030000C9460000C9460000C949A000C94600086
:100040000C9460000C9460000C9460000C946000B0
:100050000C9460000C9460000C9460000C946000A0
:100060000C9460000C94600005A84CCDB2D44EB93D
:100070003836A9020C50B9918688083CA6AAAA2A4B
:10008000BE000000803F11241FBECFEFD8E0DEBFCE
:10009000CDBF11E0A0E0B1E0E8E5F8E002C00590D6
:1000A0000D92A430B107D9F722E0A4E0B1E001C07D
:1000B0001D92AA30B207E1F70E94E7000C942A04CF
:1000C0000C94000020E030E040E853E40E94090373
:1000D00020E030E44CE152E40E94D5010E94470246
:1000E00060930001709301018093020190930301DA
:1000F000089590E002C0959587956A95E2F7817022
:10010000089581E088B920E080E090E03EEFFC01B6
:10011000E65FFE4F8038910510F4208303C0432F23
:10012000421B408301962E5F811541E0940779F7C9
:1001300018B808951F920F920FB60F9211244F9383
:100140005F936F937F938F939F93AF93BF93EF933F
:10015000FF938091060190910701A0910801B09151
:100160000901892F90E0FC01E65FFE4F80818093BA
:100170000501809105018BB940910601509107015D
:100180006091080170910901809100019091010135
:10019000A0910201B0910301840F951FA61FB71F04
:1001A0008093060190930701A0930801B093090181
:1001B000FF91EF91BF91AF919F918F917F916F913F
:1001C0005F914F910F900FBE0F901F9018958FEF7A
:1001D0008AB91BB887B918B814B885B984B58260D4
:1001E00084BD83E687BD80916E00826080936E003F
:1001F00085B5826085BD7894C0E0D0E0BE0180E026
:1002000090E00E9476029B01AC010E9469012BEDF7
:100210003FE049E450E40E94090320E030E040E878
:100220005BE30E9409030E94760320E030E04FEF79
:1002300052E40E94090320E030E04FEF52E40E94B4
:1002400069010E944702FE01E65FFE4F608321962E
:10025000C11581E0D80791F6C12CD12C98E4E92E84
:1002600092E4F92E27ED33EA40E85FE3C701B601D7
:100270000E9409036B017C010E94620080910401CD
:10028000811108C0189906C081E00E94810081E0B8
:100290008093040180910401813019F4189910921F
:1002A00004018FE39CE90197F1F700C0000020E80A
:1002B00036E948E15BE4C701B6010E940403181661
:1002C0008CF6C12CD12C80E8E82E8FE3F82ECACF13
:1002D0005058BB27AA270E9480010C94CA020E9492
:1002E000BC0238F00E94C30220F039F49F3F19F499
:1002F00026F40C94B9020EF4E095E7FB0C94B302DB
:10030000E92F0E94DB0258F3BA17620773078407CC
:10031000950720F079F4A6F50C94FD020EF4E09513
:100320000B2EBA2FA02D0B01B90190010C01CA01AF
:10033000A0011124FF27591B99F0593F50F4503E5A
:1003400068F11A16F040A22F232F342F4427585F4C
:10035000F3CF469537952795A795F0405395C9F764
:100360007EF41F16BA0B620B730B840BBAF091501C
:10037000A1F0FF0FBB1F661F771F881FC2F70EC0BB
:10038000BA0F621F731F841F48F48795779567958E
:10039000B795F7959E3F08F0B0CF9395880F08F07A
:1003A0009927EE0F9795879508950E94E9010C947F
:1003B000CA020E94C30258F00E94BC0240F029F415
:1003C0005F3F29F00C94B30251110C94FE020C947F
:1003D000B9020E94DB0268F39923B1F3552391F32C
:1003E000951B550BBB27AA2762177307840738F0A4
:1003F0009F5F5F4F220F331F441FAA1FA9F335D001
:100400000E2E3AF0E0E832D091505040E695001CB4
:10041000CAF72BD0FE2F29D0660F771F881FBB1F6E
:10042000261737074807AB07B0E809F0BB0B802D4C
:10043000BF01FF2793585F4F3AF09E3F510578F078
:100440000C94B3020C94FE025F3FE4F3983ED4F3A5
:10045000869577956795B795F7959F5FC9F7880F4C
:10046000911D9695879597F90895E1E0660F771F9E
:10047000881FBB1F621773078407BA0720F0621B2F
:10048000730B840BBA0BEE1F88F7E09508950E945A
:10049000E30288F09F5798F0B92F9927B751B0F031
:1004A000E1F0660F771F881F991F1AF0BA95C9F7F8
:1004B00014C0B13091F00E94FD02B1E008950C9497
:1004C000FD02672F782F8827B85F39F0B93FCCF34A
:1004D000869577956795B395D9F73EF49095809575
:1004E000709561957F4F8F4F9F4F0895E89409C095
:1004F00097FB3EF490958095709561957F4F8F4F57
:100500009F4F9923A9F0F92F96E9BB279395F6956C
:10051000879577956795B795F111F8CFFAF4BB0FEA
:1005200011F460FF1BC06F5F7F4F8F4F9F4F16C04E
:10053000882311F096E911C0772321F09EE8872FD8
:10054000762F05C0662371F096E8862F70E060E094
:100550002AF09A95660F771F881FDAF7880F96950D
:10056000879597F9089597F99F6780E870E060E0B4
:1005700008959FEF80EC089500240A94161617063C
:1005800018060906089500240A9412161306140684
:1005900005060895092E0394000C11F4882352F0E7
:1005A000BB0F40F4BF2B11F460FF04C06F5F7F4F9F
:1005B0008F4F9F4F089557FD9058440F551F59F086
:1005C0005F3F71F04795880F97FB991F61F09F3F40
:1005D00079F087950895121613061406551FF2CF69
:1005E0004695F1DF08C0161617061806991FF1CFB9
:1005F00086957105610508940895E894BB276627E0
:100600007727CB0197F908950E947E0308F48FEFB6
:1006100008950E941C030C94CA020E94BC0238F088
:100620000E94C30220F0952311F00C94B3020C94A5
:10063000B90211240C94FE020E94DB0270F3959F14
:10064000C1F3950F50E0551F629FF001729FBB27C9
:10065000F00DB11D639FAA27F00DB11DAA1F649F65
:100660006627B00DA11D661F829F2227B00DA11D18
:10067000621F739FB00DA11D621F839FA00D611D9E
:10068000221F749F3327A00D611D231F849F600DBF
:10069000211D822F762F6A2F11249F5750409AF0E8
:1006A000F1F088234AF0EE0FFF1FBB1F661F771F74
:1006B000881F91505040A9F79E3F510580F00C943F
:1006C000B3020C94FE025F3FE4F3983ED4F38695A8
:1006D00077956795B795F795E7959F5FC1F7FE2BDF
:1006E000880F911D9695879597F908959F930E947D
:1006F000A4030F9007FCEE5F0C94CD03990F000844
:10070000550FAA0BE0E8FEEF16161706E807F907E3
:10071000C0F012161306E407F50798F0621B730B7E
:10072000840B950B39F40A2661F0232B242B252BFF
:1007300021F408950A2609F4A140A6958FEF811DA2
:10074000811D08950C94B9020E94E302D8F3E89445
:10075000E0E0BB279F57F0F02AED3FE049EC06C0F0
:10076000EE0FBB0F661F771F881F28F0B23A620793
:100770007307840728F0B25A620B730B840BE3955E
:100780009A9572F7803830F49A95BB0F661F771FE1
:10079000881FD2F790480C94E303EF93E0FF07C063
:1007A000A2EA2AED3FE049EC5FEB0E9480010E9443
:1007B000CA020F90039401FC9058E8E6F0E00C9414
:1007C000EF039F3F31F0915020F48795779567951F
:1007D000B795880F911D9695879597F908959F93E2
:1007E0008F937F936F93FF93EF939B01AC010E94D4
:1007F0000903EF91FF910E9403042F913F914F91C4
:100800005F910C940903DF93CF931F930F93FF9293
:10081000EF92DF927B018C01689406C0DA2EEF0123
:100820000E941C03FE01E894A59125913591459104
:100830005591A6F3EF010E948001FE019701A801E6
:10084000DA9469F7DF90EF90FF900F911F91CF91AD
:08085000DF910895F894FFCF39
:04085800000100009B
:00000001FF
