:100000000C9434000C9451000C9451000C94510049
:100010000C9451000C9451000C9451000C9451001C
:100020000C9451000C9451000C9451000C9451000C
:100030000C9451000C9451000C94B6000C94510097
:100040000C9451000C9451000C9451000C945100EC
:100050000C9451000C9451000C9451000C945100DC
:100060000C9451000C94510011241FBECFEFD8E026
:10007000DEBFCDBF11E0A0E0B1E0E2E1F9E002C0F7
:1000800005900D92A433B107D9F721E0A4E3B1E0C4
:1000900001C01D92A534B207E1F70E945B010C94E8
:1000A00087040C94000090E002C0959587956A95AE
:1000B000E2F7817008959B01AC0160E070E48CE987
:1000C00096E40E94EB0220E030E040E853E40E9416
:1000D0001A040E945D036093410170934201809372
:1000E000430190934401089524E0629F800D911D87
:1000F0001124FC0160817181828193810C945B00E9
:1001000020914101309142014091430150914401BD
:1001100087FF07C0682F772761950CF47095DB0186
:1001200003C0A82F880FBB0B0E94C0020E948C0343
:100130002091000130910101409102015091030191
:100140000E941A040E945D03DC01CB0127E0B695F2
:10015000A795979587952A95D1F780933401909329
:100160003501A0933601B093370108951F920F9285
:100170000FB60F9211248F929F92AF92BF92CF929F
:10018000DF92EF92FF922F933F934F935F936F9382
:100190007F938F939F93AF93BF93EF93FF93809140
:1001A000410190914201A0914301B0914401C0905E
:1001B0003401D0903501E0903601F0903701209164
:1001C0003801213009F05EC0C80ED91EEA1EFB1EA0
:1001D00060913D0170913E0180913F0190914001FD
:1001E0008090390190903A01A0903B01B0903C0181
:1001F000A70196010E946302DC01CB0127E0B695BE
:10020000A795979587952A95D1F788169906AA06F6
:10021000BB0618F48FEF8BB901C01BB88091390170
:1002200090913A01A0913B01B0913C018C159D0544
:10023000AE05BF05A0F06091390170913A0180913F
:100240003B0190913C01A70196010E9493026093AB
:10025000390170933A0180933B0190933C01809166
:10026000390190913A01A0913B01B0913C019F5F0F
:10027000AF4FBF4F8093390190933A01A0933B0158
:10028000B0933C01FF91EF91BF91AF919F918F91FE
:100290007F916F915F914F913F912F91FF90EF90E0
:1002A000DF90CF90BF90AF909F908F900F900FBE38
:1002B0000F901F901895CF93DF93CDB7DEB7E297DD
:1002C0000FB6F894DEBF0FBECDBF8FEF84B91AB85A
:1002D00085B98BB984B5826084BD83E687BD809182
:1002E0006E00826080936E0085B5826085BD7894D3
:1002F00082E390E0A0E0B0E080933D0190933E0166
:10030000A0933F01B09340018AEB96E1A0E0B0E0FA
:100310008093410190934201A0934301B093440123
:1003200080E3E4E0F1E0DE01119601900D928A9500
:10033000E1F71AAA00E0812C912C540110E021E091
:1003400029AB88E3C82E86E2D82EE12CF12C9AE066
:10035000492E512C612C712C23E0222E312C8091BE
:100360003D0190913E01A0913F01B091400148971D
:10037000A105B10511F481E089AB80913D01909117
:100380003E01A0913F01B09140018F379105A10539
:10039000B10519F099A9911115C080913D01909175
:1003A0003E01A0913F01B09140010197A109B1091F
:1003B00080933D0190933E01A0933F01B093400193
:1003C00019AA15C080913D0190913E01A0913F0175
:1003D000B09140010196A11DB11D80933D01909304
:1003E0003E01A0933F01B0934001A1E0A9AB8FE78C
:1003F0009EE30197F1F700C000009FEF891A990A68
:10040000A90AB90AA1E0A0933801189905C086E5A8
:100410009EE1A0E0B0E006C019990DC082E899E124
:10042000A0E0B0E08093410190934201A09343018A
:10043000B093440122C01A9905C08FE394E1A0E073
:10044000B0E0F0CF1B9911C0812F63E00E947302CE
:10045000692F81E090E08C0F9D1FACE0A09F800D84
:10046000911D11240E94740008C0C0924101D092D5
:100470004201E0924301F0924401C501B401A3019D
:1004800092010E949302672B682B692B39F4812F0C
:1004900090E00196B1010E947F02182FC501B401BE
:1004A00028EC30E040E050E00E949302672B682B7C
:1004B000692B11F40F5F0370BAA9B350BAAB8B2F3D
:1004C0000E9480004CCFDB018F939F930E94B50266
:1004D000BF91AF91A29F800D911DA39F900DB29FE0
:1004E000900D11240895991B79E004C0991F961767
:1004F00008F0961B881F7A95C9F78095089597FB99
:10050000072E16F4009407D077FD09D00E94C80288
:1005100007FC05D03EF4909581959F4F0895709506
:1005200061957F4F0895A1E21A2EAA1BBB1BFD0106
:100530000DC0AA1FBB1FEE1FFF1FA217B307E407C2
:10054000F50720F0A21BB30BE40BF50B661F771F1A
:10055000881F991F1A9469F76095709580959095FA
:100560009B01AC01BD01CF0108950E94DC02A59F53
:10057000900DB49F900DA49F800D911D112408959E
:10058000B7FF0C94B5020E94B502821B930B08952D
:10059000AA1BBB1B51E107C0AA1FBB1FA617B707A9
:1005A00010F0A61BB70B881F991F5A95A9F78095C5
:1005B0009095BC01CD010895A29FB001B39FC001E9
:1005C000A39F700D811D1124911DB29F700D811D7F
:1005D0001124911D08950E94FF020C94E0030E94D3
:1005E000D90358F00E94D20340F029F45F3F29F06C
:1005F0000C94C90351110C9414040C94CF030E9461
:10060000F10368F39923B1F3552391F3951B550B2F
:10061000BB27AA2762177307840738F09F5F5F4FD5
:10062000220F331F441FAA1FA9F335D00E2E3AF014
:10063000E0E832D091505040E695001CCAF72BD02C
:10064000FE2F29D0660F771F881FBB1F261737077D
:100650004807AB07B0E809F0BB0B802DBF01FF27AF
:1006600093585F4F3AF09E3F510578F00C94C903C0
:100670000C9414045F3FE4F3983ED4F38695779589
:100680006795B795F7959F5FC9F7880F911D969568
:10069000879597F90895E1E0660F771F881FBB1FC4
:1006A000621773078407BA0720F0621B730B840B71
:1006B000BA0BEE1F88F7E09508950E94F90388F0C1
:1006C0009F5798F0B92F9927B751B0F0E1F0660F16
:1006D000771F881F991F1AF0BA95C9F714C0B13057
:1006E00091F00E941304B1E008950C941304672F55
:1006F000782F8827B85F39F0B93FCCF38695779586
:100700006795B395D9F73EF490958095709561956E
:100710007F4F8F4F9F4F0895E89409C097FB3EF499
:1007200090958095709561957F4F8F4F9F4F99233E
:10073000A9F0F92F96E9BB279395F69587957795BC
:100740006795B795F111F8CFFAF4BB0F11F460FF7C
:100750001BC06F5F7F4F8F4F9F4F16C0882311F0D4
:1007600096E911C0772321F09EE8872F762F05C0E8
:10077000662371F096E8862F70E060E02AF09A9583
:10078000660F771F881FDAF7880F9695879597F978
:10079000089597F99F6780E870E060E008959FEF03
:1007A00080EC089500240A94161617061806090608
:1007B000089500240A9412161306140605060895D7
:1007C000092E0394000C11F4882352F0BB0F40F45F
:1007D000BF2B11F460FF04C06F5F7F4F8F4F9F4F9F
:1007E000089557FD9058440F551F59F05F3F71F021
:1007F0004795880F97FB991F61F09F3F79F0879588
:100800000895121613061406551FF2CF4695F1DF10
:1008100008C0161617061806991FF1CF86957105A0
:10082000610508940895E894BB2766277727CB01D4
:1008300097F908950E942D040C94E0030E94D203BE
:1008400038F00E94D90320F0952311F00C94C903CD
:100850000C94CF0311240C9414040E94F10370F340
:10086000959FC1F3950F50E0551F629FF001729F55
:10087000BB27F00DB11D639FAA27F00DB11DAA1F64
:10088000649F6627B00DA11D661F829F2227B00DB1
:10089000A11D621F739FB00DA11D621F839FA00D3C
:1008A000611D221F749F3327A00D611D231F849F8C
:1008B000600D211D822F762F6A2F11249F575040E3
:1008C0009AF0F1F088234AF0EE0FFF1FBB1F661F5E
:1008D000771F881F91505040A9F79E3F510580F027
:1008E0000C94C9030C9414045F3FE4F3983ED4F3D2
:1008F000869577956795B795F795E7959F5FC1F7CB
:10090000FE2B880F911D9695879597F90895F89479
:02091000FFCF17
:100912000AD7A33C00D00244A4D024445CFF434441
:100922000000DC4300D00244A4D02444719DAE43B5
:100932000000DC4300D002440000C443299CF6437B
:040942001FD5124467
:00000001FF
