:100000000C9434000C9446000C9446000C9446006A
:100010000C9446000C9446000C9446000C94460048
:100020000C9446000C9446000C9446000C94460038
:100030000C9446000C9446000C9446000C94460028
:100040000C9446000C9446000C9446000C94460018
:100050000C9446000C9446000C9446000C94460008
:100060000C9441010C94460011241FBECFEFD8E040
:10007000DEBFCDBF21E0A0E0B1E001C01D92A23DF6
:10008000B207E1F70E9467020C94A1020C940000F1
:10009000ACE7B0E080E48C93EAE7F0E081E88083AD
:1000A0008081866080838C9180648C938C918C930A
:1000B0008C9180628C938081806880838081806451
:1000C0008083089580937C0080917A00806480937F
:1000D0007A0080917A0084FFFCCF80917A00806161
:1000E00080937A008091780090917900089590E053
:1000F00002C0959587956A95E2F7817008951092F0
:100100008F01449A459AE9EBF0E080818E7F8083ED
:1001100080818D7F808380E28093B80085E4809326
:10012000BC000895880F8093BA000895433468F5A1
:1001300090918F019111FCCF91E090938F019FEFEF
:100140009093000110924701940F90934601880FFD
:10015000816080938E0185EE8093BC0080918F0139
:100160008130E1F380914701841710F440914701F9
:10017000A8E4B1E0962FFB018E2F891B841718F499
:100180008D918193F9CF842F089580E008954334B1
:10019000B0F590918F019111FCCF32E030938F0137
:1001A0003FEF309300011092470140934601562FD4
:1001B000A8E4B1E0FB013E2F351B341718F4319150
:1001C0003D93F9CF482F50E0440F551F40938E01C7
:1001D00085EE8093BC00222321F080918F01823034
:1001E000D1F3809100018F3F79F08091000180323E
:1001F00041F080910001803331F094E005C091E03E
:1002000003C092E001C093E0892F0895633498F40D
:1002100020918F01243089F460930201282FA4E0FB
:10022000B1E0FC018E2F821B861718F481918D930B
:10023000F9CF80E0089581E0089582E008959093D9
:100240008B0180938A01089590938D0180938C0196
:100250000895882311F085EC01C085E88093BC00E7
:10026000089585ED8093BC008091BC0084FDFCCF97
:1002700010928F01089585EC8093BC0010928F013D
:1002800008951F920F920FB60F9211242F933F9350
:100290004F935F936F937F938F939F93AF93BF938E
:1002A000EF93FF938091B900887F803609F495C061
:1002B00068F5883209F45BC090F4803109F454C0C9
:1002C00038F4882309F4EEC0883009F44DC0EEC03C
:1002D000883109F44CC0803209F45EC0E7C0803434
:1002E00009F469C048F4803309F456C0883309F032
:1002F000DDC080930001A1C0803509F450C088356D
:1003000009F45EC0883409F0D1C0CEC0883909F440
:10031000BFC0A8F4883709F460C038F4883609F4FF
:100320005CC0803709F459C0C1C0883809F4B0C036
:10033000803909F458C0803809F0B8C054C0803BF7
:1003400009F47EC038F4803A09F45FC0883A09F4B1
:1003500077C0ACC0803C09F49FC0883C09F49CC0C5
:10036000883B09F482C0A2C080918E0111C0909197
:10037000470180914601981708F096C0E091470127
:1003800081E08E0F80934701F0E0E85BFE4F8081B3
:100390008093BB0085EC7DC08093000185C0E09117
:1003A000470181E08E0F809347018091BB00F0E010
:1003B000E85BFE4F8083909147018091460165C0C4
:1003C000E091470181E08E0F809347018091BB004F
:1003D000F0E0E85BFE4F808367C083E080938F018D
:1003E00010920101D7CF80910101823408F050C0F2
:1003F000E091010181E08E0F809301018091BB00AB
:10040000F0E0E057FE4F8083C5CF80910101823438
:1004100030F4E0910101F0E0E057FE4F10820E94BD
:1004200031016091010170E0E0918A01F0918B014E
:1004300080E991E00995109201010E943B0136C0CC
:1004400084E080938F011092030110920201E091E9
:100450008C01F0918D01099580910201811105C0F7
:1004600081E08093020110920401E091030181E098
:100470008E0F80930301F0E0EC5FFE4F808180934C
:10048000BB009091030180910201981708F482CF7C
:1004900085E88093BC000AC085EC8093BC00109274
:1004A0008F0104C0109200010E943101FF91EF9171
:1004B000BF91AF919F918F917F916F915F914F917C
:1004C0003F912F910F900FBE0F901F901895CF93D3
:1004D000DF9300D0CDB7DEB78FEF84B91AB885B9F6
:1004E0008BB987B9399888B92FE788E391E0215013
:1004F00080409040E1F700C000000E947F007894A7
:100500000E94480081E00E9462009A838983489B90
:1005100003C0809585B903C08095909595B92FE764
:1005200088E391E0215080409040E1F700C0000056
:1005300021E042E0BE016F5F7F4F81E00E94C70073
:06054000E1CFF894FFCFAB
:00000001FF
